:10085B00043A00000000082E543A2030302E3000AD
:10086B000C215365745F543A2030302E3000014612
:04087B0000012D004B
:10054A001207DBEE20E3221207DBAC06AD07E4124A
:10055A00027FE4FBFA7980783D1200FB8F398E38EE
:10056A008D378C3675302B80291207DBEFF4FFEEBE
:10057A00F4FEEF2401FDE43EFCE412027FE4FBFA00
:10058A007980783D1200FB8F398E388D378C36751D
:10059A00302DE4FFFE7D207C41AB39AA38A937A86B
:1005AA00361200FB1202B8AB07AA067C007D641261
:1005BA0003D4EF2430F5317C007D0AAF03AE02127A
:1005CA0003D47C007D0A1203D4ED2430F532AE0246
:0E05DA00AF037C007D0A1203D4ED2430F5340B
:0105E80022F0
:1004180020A449E5461460191460272402703DAFF2
:100428003DAE3CAD3BAC3A7BCD7ACC79CC783D80C7
:1004380020AF3DAE3CAD3BAC3AE4FBFA7980783F67
:10044800800FAF3DAE3CAD3BAC3AE4FBFA79207887
:100458004112000A8F3D8E3C8D3B8C3A20A549E520
:10046800461460191460272402703DAF3DAE3CADC0
:100478003BAC3A7BCD7ACC79CC783D8020AF3DAE91
:100488003CAD3BAC3AE4FBFA7980783F800FAF3D56
:10049800AE3CAD3BAC3AE4FBFA7920784112000659
:1004A8008F3D8E3C8D3B8C3A20A607E52D70037559
:1004B8002D01E52DB4011730A614E5462401FFE40B
:1004C80033FE7C007D0312037F8D46E4F52DE4FFA7
:1004D800FEFDFCAB3DAA3CA93BA83A120201600E06
:1004E800400C75272BE4FFFE7D207C41800A752790
:1004F8002DE4FFFE7D207CC1AB3DAA3CA93BA83A78
:100508001200FB1202B88E198F1AAE19AF1A7C00AE
:100518007D641203D4EF2430F528AE19AF1A7C009D
:100528007D0A1203D47C007D0A1203D4ED2430F531
:1005380029AE19AF1A7C007D0A1203D4ED2430F5D8
:010548002B87
:01054900228F
:1006E5001208C612041812054A7B007A00792E7D7D
:1006F50005E4FF1207A27B007A0079217D017F01C5
:100705001207A2AF3DAE3CAD3BAC3AAB39AA38A916
:1007150037A8361202015004C2A780C7D2A780C3EA
:10083300C200D2A37F051208DAC2A37FC81208DA66
:100843007FC81208DAD2A37F281208DAA2A3920083
:070853007F191208DAA20070
:01085A00227B
:10080A00E4F51AF51B751A08C2A3E51BC313F51BF9
:10081A00D2A330A303431B807F191208DA151AE505
:08082A001AD3940050E2AF1B49
:0108320022A3
:10072500AB08AA09A90A850B82758300120352FF3B
:020735008F1A19
:10073700E4F51B751B08C2A37F051208DAE51A1337
:1007470092A37F051208DAD2A3E51AC313F51A1587
:0D0757001BE51BD3940050DE7F190208DA69
:100764001208337F331207357F0A7E001208801285
:10077400080A8F1112080A8F1212080A8F1312081E
:100784000A8F1412080A8F1512080A8F1612080A03
:0E0794008F1712080A8F187B007A0079112245
:1007DB00E4F519FFFEFDFC1208337FCC1207357FC1
:1007EB00441207351208337FCC1207357FBE120730
:0E07FB003512080A8F1912080AEFFEE519FFE1
:0108090022CC
:060675008B088A09890AC6
:10067B00E4F50CF50DF50EF50FF5101208337F555B
:10068B00120735E4F50B120725050BE50BC3940890
:10069B0040F47F441207357F207E03120880120836
:1006AB00337F55120735E4F50B120725050BE50BC8
:1006BB00C3940840F47FBE12073512080A8F0C1240
:1006CB00080A750D008F0EE50E750E00F50DF50F72
:0906DB00E50E450CF510AE0FFF11
:0106E40022F3
:0308DA00DFFE221C
:10088000D3EF9400EE940040147D7B7C00ED1D704E
:0D089000011CED4C70F7EF1F70E61E80E3B9
:01089D002238
:10089E00C2A0C2A1C2A28F807F057E00120880D2A4
:0408AE00A2C2A2221E
:1008B200D2A0C2A1C2A28F807F057E00120880D280
:0408C200A2C2A2220A
:1008C6007F3812089E7F0C12089E7F0612089E7FB4
:0408D6000102089E75
:0607A2008B198A1A891B65
:1007A800EF70048D1C8005ED2440F51CE51C448089
:1007B800FF12089EAB19AA1AA91B12033960130568
:1007C8001BE51B7002051A14F9120339FF1208B24F
:0207D80080E2BD
:0107DA0022FC
:10000300020324E86480F8E933E83360110460F004
:10001300ED33EC337009E8FCE9FDEAFEEBFF220463
:1000230060DED3EB9FEA9EE99DE8C2E78CF0C2F75E
:1000330095F0400CE8CCF8E9CDF9EACEFAEBCFFB2A
:100043001202EF85D0F05804700320D5B3E8047092
:10005300075002B2D502032E92D5EC0460F7E4CC2C
:10006300C0E0C398F8603B94186008400DD0E0FBF3
:10007300020306E4FBFAC9FC8028E830E406E4C97D
:10008300FBE4CAFCE830E305E4C9CACBFCE8540747
:100093006010F8C3E913F9EA13FAEB13FBEC13FC52
:1000A300D8F130F52FC3E49CFCEF9BFFEE9AFEEDF5
:1000B30099FDD0E0FBEF4E4D4C701222DB0302039F
:1000C3002BEC2CFCEF33FFEE33FEED33FDED30E78D
:1000D300EB020306EF2BFFEE3AFEED39FDD0E0FB1A
:1000E30050130BBB000302032EED13FDEE13FEEFC3
:0800F30013FFEC13FC020306ED
:1000FB00EC4D6011E8497017ED33EC3304600DE4FF
:10010B00FCFFFEFD22E933E8330470F802032412EE
:10011B0002EF58046009E4CC2481500628500902F0
:10012B00032E28400302032BC0E0EB4A7044B98036
:10013B0006D0E0FB02031AEF4E701CBD8008EBFFEC
:10014B00EAFEE9FD80EBE98DF0A4FEE5F00201E4A7
:10015B00E9CDF9EAFEEBFFEF89F0A4FCE5F0CE89DF
:10016B00F0A42EFFE435F0CD89F0A42DFEE435F09C
:10017B008067EF4E7005BD80D780C3EF8BF0A4ACCA
:10018B00F0EE8BF0A42CFCE435F0F8EF8AF0A42C05
:10019B00E5F038FCE433CB8DF0A42CFCE5F03BF818
:1001AB00EE8AF0A42CFCE5F038F8E433CF89F0A408
:1001BB002CFCE5F038CF3400CE89F0A42FFFE5F00E
:1001CB003EFEE433C98DF0A42EFEE5F039CD8AF066
:1001DB00A42FFFE5F03EFEE43DFD33D0E0FB5007DE
:1001EB000BBB000F02032EEC2CFCEF33FFEE33FEA8
:0601FB00ED33FD020306D6
:1002010074F8CC6480CCC86480C8F58204604FC3A4
:10021100EB9FF5F0EA9E42F0E99D42F0E89C45F043
:10022100603C501DE5825FFFE582D313CB5BCBF4CD
:100231002B5582FB50280ABA002409B900200880F6
:100241001DE5825BFBE582D313CF5FCFF4C3132F90
:100251005582FF50090EBE00050DBD00010CC3EB18
:100261009FF5F0EA9E42F0E99D42F0E89C45F0607E
:0902710007CC4820E701B3EC22A0
:10027A0075F020800E75F010800575F0087D007EFF
:10028A00007F003392D530D50312040AEC334010B4
:10029A00EF33FFEE33FEED33FDEC33FCD5F0ED2208
:0E02AA00E5F0247EA2D513CC92E7CDCEFF2244
:1002B800EDD2E7CD33EC3392D524814006E4FFFE3E
:1002C800FDFC22FCE4CFCECDCC24E0501174FF809D
:1002D800EDC3CC13CCCD13CDCE13CECF13CF04703A
:0702E800F030D5DE02040A2C
:1002EF00E9D2E7C933E833F892D5EDD2E7CD33EC55
:0702FF0033FC5002B2D522CE
:10030600EC30E7100FBF000C0EBE00080DBD000458
:100316000BEB6014A2D5EB13FCED92E7FD2274FF04
:10032600FCFDFEFF22E480F8A2D574FF13FC7D805D
:03033600E480EF71
:030000000205E90D
:0C05E900787FE4F6D8FD758146020630EC
:10033900BB010689828A83E0225002E722BBFE02C2
:09034900E32289828A83E49322F5
:10035200BB010CE58229F582E5833AF583E0225060
:1003620006E92582F8E622BBFE06E92582F8E222AA
:0D037200E58229F582E5833AF583E49322C4
:10037F00BC000BBE0029EF8DF084FFADF022E4CC62
:10038F00F875F008EF2FFFEE33FEEC33FCEE9DEC2B
:10039F00984005FCEE9DFE0FD5F0E9E4CEFD22ED71
:1003AF00F8F5F0EE8420D21CFEADF075F008EF2FBB
:1003BF00FFED33FD4007985006D5F0F222C398FDAC
:0503CF000FD5F0EA2249
:1003D400C2D5EC30E709B2D5E4C39DFDE49CFCEE44
:1003E40030E715B2D5E4C39FFFE49EFE12037FC33A
:1003F400E49DFDE49CFC800312037F30D507C3E435
:060404009FFFE49EFE22B2
:0E040A00C3E49FFFE49EFEE49DFDE49CFC2203
:1005F5000206E5E493A3F8E493A34003F68001F231
:1006050008DFF48029E493A3F85407240CC8C33306
:10061500C4540F4420C8834004F456800146F6DFD5
:10062500E4800B010204081020408090085BE47E02
:10063500019360BCA3FF543F30E509541FFEE493CA
:10064500A360010ECF54C025E060A840B8E493A391
:10065500FAE493A3F8E493A3C8C582C8CAC583CABC
:10066500F0A3C8C582C8CAC583CADFE9DEE780BE74
:01087F000078
:00000001FF
